:030000000202F702
:0C02F700787FE4F6D8FD75815202033ECA
:03068A006F6B0093
:10043E001930000000000000000000000000000065
:10044E0000000000000000000000000B2300000070
:10045E000000000000000000015100012F000152B9
:10046E0014012E0A01500007490000000000000090
:06047E0001210001220033
:10050E002480FFEE3401FEED54037A002FFFEA2221
:10051E00EF3395E0FEEF780222EEC39408748094D8
:0C052E008022C3E50994077480948022A9
:0400250091CBB13A90
:10002900E4F508E550700201C1E53064747053E5E8
:100039004275F00AA4254324F0F549E53F75F00A15
:10004900A4254024F0F54AE53C75F00AA4253D2491
:10005900F0F54BE53A24D0F54CE53775F00AA425BF
:100069003824F0F54DE53475F00AA4253524F0F56A
:100079004EE53175F00AA4253224F0F54F71F37578
:1000890030541201152430F523120115E5F02430FE
:10009900F5247525201201212430F526120121E5C8
:1000A900F02430F5277528207F03B1ABD148EF2420
:1000B90030F529E4F52AF550E5527005B16375521A
:1000C90014E52E7005B13A752E04E52F7034E54B11
:1000D90075F00A84FFE54B75F00A84ADF0E54A75C1
:1000E900F00A84FBE54A75F00A8485F00CE5497548
:1000F900F00A84F50DE54975F00A8485F00E312D75
:0A01090001297B007A0079235116CA
:1001130001297F05B1ABD148EF75F00A84227F0432
:0A012300B1ABD148EF75F00A842259
:080671007F037E23DEFEDFFCA7
:01067900225E
:0D065700E4F5C7F5C5F5C675C380F5C422EE
:10000D0075C78275C5018FC48EC375C65A75C6A5D1
:05001D0000AFC2C15755
:04068300D187D2B297
:030687000000224E
:1004CB00E4F5E975D90275DA42F5F275EA8075FA49
:1004DB0080D2DE759D8075BC8FF58E7587805389B4
:1004EB000F438921758BFD758DFDC2ABD28EC29FDB
:1004FB00D29E758C3C758AB0D28CD2A9D2AFD2ACBD
:03050B00D29C225D
:10056300E4FF75BC8F00000000E5BC70047E0180D1
:10057300027E00EE20E4F2AFBDEFC39405748094D5
:070583008050027F058FFA92
:01058A00224E
:0D066400D2B3D2B2D187C2B3D187C2B222C5
:09067A00C2B3120683D2B3C1879A
:10061400D2B3120683A2B39200D187C2B2D187A209
:0106240000D5
:0106250022B2
:1005C900C2B2D187E4FEB1275011EF3392B3D18380
:0B05D900EF25E0FFC2B2D1870E80EBDF
:0105E40022F4
:10058B00E4FFD2B3FEB1275013D187C2B2D183EFB0
:10059B0025E0FF30B3010FD1870E80E9C2B2C187CE
:1005E500AC07D1647FD0B1C9D114AF04B1C9D1145E
:0805F500AF05B1C9D114C17AB0
:0205AB00AD079A
:1005AD00E4FFD1647FD0B1C9D114AF05B1C9D11465
:0C05BD00D1647FD1B1C9D114B18BC17AD7
:080003008F993099FDC299228A
:100626009185FF600B1103740129F9E43AFA80F011
:0106360022A1
:0F064800EFC4540F75F00AA4FEEF540F2EFF22DB
:10053A00E4FCFFB1ABD148E5496F601C8F490CEC74
:10054A00C3940374809480500FAF04B1ABD1487444
:08055A00492CF8A6070C80E70C
:010562002276
:1003F300E4F509B130502874492509F8E6FF75F092
:100403000A84FEEF75F00A84A6F074492509F8C042
:1004130000E6FFEEC454F04FD000F6050980D4E4A3
:10042300F509B130500F74492509F8E6FDAF09B15C
:0B043300E5050980ED7D0C7F0EA1E5C2
:06012D008F098D0A8B0B07
:10013300C294E4FDEDC3941D748094804002411584
:10014300C2B5C293ED1313543FF9B4070040022123
:10015300D890015A25E07321682186219521A02199
:10016300AF21BE21C3AF09B11EC333CE33CED8F9FD
:100173002480FFEE3401FEED54037583002FFFE569
:100183008321D2AF0AB11EC333CE33CED8F9B10E19
:10019300803D7A140DED640B703BFA8038AF0BB1E0
:1001A3001EC333CE33CED8F9B10E8023AF0CB11EAC
:1001B300C333CE33CED8F9B10E8014E4FA0D8015D3
:1001C300AF0EB11EC333CE33CED8F92458B1103E8F
:1001D300FE110DAA07E50DF5823395E0F583D3E50E
:1001E30082997480F86583984003430280C290D259
:1001F300B5E4FFEFB128500FC291EA339292EA259A
:10020300E0FAD2910F80ECD290D293D171D2940DB7
:02021300213791
:0102150022C6
:060216008B098A0A890B26
:10021C00E4F50CF50DD1378F0CE50C75F008A41432
:10022C00FFE551D39F4003E4F55185510DC294E590
:10023C000D2418FFE433FEAD517C00C3ED9FEE643A
:10024C0080F8748098400241D5C2B5C293D2B5E50E
:10025C000C75F008A4FFC3ED9FE5F06480F8748082
:10026C0098503EE551131313541FAB09AA0AA90B5E
:10027C00F582758300919EFFBF20027F40EF24D052
:10028C00FFE434FFFEEF7803C333CE33CED8F9FF4F
:10029C00E55154077C002FFFEC3EFE110D8F0E80B4
:1002AC0003E4F50EC290E4FFEFB1285012E50E33D3
:1002BC009292C291E50E25E0F50ED2910F80E9D213
:1002CC0094D290D2930551413B850D510521D3E534
:1002DC000C9404748094804011AF21EF3395E0FEB0
:0A02EC00EF64324E7004F521055155
:0102F60022E5
:10063700E4FF9185600A0F740129F9E43AFA80F220
:010647002290
:02000B00A1FD55
:1005FD00C0E0758C3C758AB0E55260021552E52E4F
:07060D006002152ED0E0325F
:020023006183F7
:10038300C0E0C083C082C0D075D000C000C001C02F
:0503930002C003C007D9
:10039800309845C298AF99EF640A601674302522E8
:1003A800F8A607C3E522941874809480502A052281
:1003B800802675500174302522F87600E530B47334
:1003C80014E52F70047F0180027F008F2F7BFF7A56
:0803D80006798AD12675220086
:1003E000D007D003D002D001D000D0D0D082D083AB
:0303F000D0E03228
:10030300020025E493A3F8E493A34003F68001F2EB
:1003130008DFF48029E493A3F85407240CC8C333FB
:10032300C4540F4420C8834004F456800146F6DFCA
:10033300E4800B010204081020408090043EE47E18
:10034300019360BCA3FF543F30E509541FFEE493BF
:10035300A360010ECF54C025E060A840B8E493A386
:10036300FAE493A3F8E493A3C8C582C8CAC583CAB1
:10037300F0A3C8C582C8CAC583CADFE9DEE780BE69
:010484000077
:10048500BB010689828A83E0225002E722BBFE0275
:09049500E32289828A83E49322A8
:10049E00BB010CE58229F582E5833AF583E0225013
:1004AE0006E92582F8E622BBFE06E92582F8E2225D
:0D04BE00E58229F582E5833AF583E4932277
:00000001FF
